:030000000260009B
:10600000C2AF758150319A90600005929080007FF8
:10601000003168316802801890C7D67408F0E4F542
:1060200020F87D10FEFFDFFEDEFBDDF8F07403904C
:10603000C7DEF0A3F090C7A9F0A3F0A3F0A3F0A3EC
:10604000F0A3F0742090C781F090C788F0A3F0C24D
:10605000C4319A30C4FB90C7A8E0B4003690C7EEB4
:10606000E0FFA3E060027FFF90C7EBE0B401079080
:1060700081A47E120188B402079081B67E2901882E
:10608000B4220E9081DF7E18EE9FEE4001EFF831D2
:10609000762146B4242975920030032590C7B6E0D6
:1060A000540270F8318790C64005928A8589847FB2
:1060B000403168C2FDAA85A984D202DB02C2032155
:1060C0004290C640E0FEA3E0FFBE011090C680747F
:1060D00001F0A37401F090C7B77440F0BE020E3116
:1060E00090EFC3337B08FA7900D203D202BE0320BB
:1060F000EF75F040A4F582E4200102744025F0F52C
:1061000083059290C6807F40316890C7B77440F095
:10611000BE04043190D202BE0609C201EF7002D261
:1061200001D202BE070775B503319A212BBE0812B2
:10613000C2AF31877582F075837F74F1F020FCFD6A
:10614000C2FD90C7C7F030020D90C680E4F090C742
:10615000B77440F0C202740390C7A9F0A3F0A3F093
:1061600090C7B47402F0014F1592E0A30592F0A31A
:1061700020FCFDDFF322059290C70088073168906C
:10618000C7B5E8F078002275FAAA75FA55D2FD2253
:1061900031878FFA20FCFDC2FD2275AB0F75ACFF75
:1061A00075AD08221201100100000040151901010F
:1061B0000100000000010902290001010080190905
:1061C000040000020300000009211101000122184F
:1061D0000007058103400001070501034000010697
:1061E00000FF0900A180150025FF750895400901F1
:0761F000810209029102C0C7
:00000001FF
